{
  "contractName": "AIModelMarketplace",
  "abi": [
    {
      "inputs": [
        {
          "internalType": "uint256",
          "name": "",
          "type": "uint256"
        }
      ],
      "name": "modelPurchasers",
      "outputs": [
        {
          "internalType": "address",
          "name": "",
          "type": "address"
        }
      ],
      "stateMutability": "view",
      "type": "function",
      "constant": true
    },
    {
      "inputs": [
        {
          "internalType": "uint256",
          "name": "",
          "type": "uint256"
        }
      ],
      "name": "models",
      "outputs": [
        {
          "internalType": "string",
          "name": "name",
          "type": "string"
        },
        {
          "internalType": "string",
          "name": "description",
          "type": "string"
        },
        {
          "internalType": "uint256",
          "name": "price",
          "type": "uint256"
        },
        {
          "internalType": "address",
          "name": "creator",
          "type": "address"
        },
        {
          "internalType": "uint8",
          "name": "ratingSum",
          "type": "uint8"
        },
        {
          "internalType": "uint8",
          "name": "ratingCount",
          "type": "uint8"
        }
      ],
      "stateMutability": "view",
      "type": "function",
      "constant": true
    },
    {
      "inputs": [
        {
          "internalType": "string",
          "name": "name",
          "type": "string"
        },
        {
          "internalType": "string",
          "name": "description",
          "type": "string"
        },
        {
          "internalType": "uint256",
          "name": "price",
          "type": "uint256"
        }
      ],
      "name": "listModel",
      "outputs": [],
      "stateMutability": "nonpayable",
      "type": "function"
    },
    {
      "inputs": [
        {
          "internalType": "uint256",
          "name": "modelId",
          "type": "uint256"
        }
      ],
      "name": "purchaseModel",
      "outputs": [],
      "stateMutability": "payable",
      "type": "function",
      "payable": true
    },
    {
      "inputs": [
        {
          "internalType": "uint256",
          "name": "modelId",
          "type": "uint256"
        },
        {
          "internalType": "uint8",
          "name": "rating",
          "type": "uint8"
        }
      ],
      "name": "rateModel",
      "outputs": [],
      "stateMutability": "nonpayable",
      "type": "function"
    },
    {
      "inputs": [
        {
          "internalType": "uint256",
          "name": "modelId",
          "type": "uint256"
        }
      ],
      "name": "getModelDetails",
      "outputs": [
        {
          "internalType": "string",
          "name": "",
          "type": "string"
        },
        {
          "internalType": "string",
          "name": "",
          "type": "string"
        },
        {
          "internalType": "uint256",
          "name": "",
          "type": "uint256"
        },
        {
          "internalType": "address",
          "name": "",
          "type": "address"
        },
        {
          "internalType": "uint8",
          "name": "",
          "type": "uint8"
        }
      ],
      "stateMutability": "view",
      "type": "function",
      "constant": true
    },
    {
      "inputs": [],
      "name": "getModelsCount",
      "outputs": [
        {
          "internalType": "uint256",
          "name": "",
          "type": "uint256"
        }
      ],
      "stateMutability": "view",
      "type": "function",
      "constant": true
    }
  ],
  "bytecode": "0x608060405234801561001057600080fd5b50611178806100206000396000f3fe6080604052600436106100705760003560e01c806331fc042f1161004e57806331fc042f146100f25780636a030ca914610133578063dc74686214610175578063e1e97b3e1461019157610070565b806312ee1c0e146100755780631c788a9a1461009e578063298fbde0146100c7575b600080fd5b34801561008157600080fd5b5061009c60048036038101906100979190610b35565b6101ce565b005b3480156100aa57600080fd5b506100c560048036038101906100c09190610bdd565b610318565b005b3480156100d357600080fd5b506100dc6104d1565b6040516100e99190610e8a565b60405180910390f35b3480156100fe57600080fd5b5061011960048036038101906101149190610bb4565b6104dd565b60405161012a959493929190610d5a565b60405180910390f35b34801561013f57600080fd5b5061015a60048036038101906101559190610bb4565b6106e5565b60405161016c96959493929190610dbb565b60405180910390f35b61018f600480360381019061018a9190610bb4565b61087b565b005b34801561019d57600080fd5b506101b860048036038101906101b39190610bb4565b6109cd565b6040516101c59190610d3f565b60405180910390f35b60006040518060c001604052808581526020018481526020018381526020013373ffffffffffffffffffffffffffffffffffffffff168152602001600060ff168152602001600060ff1681525090806001815401808255809150506001900390600052602060002090600402016000909190919091506000820151816000019080519060200190610260929190610a00565b50602082015181600101908051906020019061027d929190610a00565b506040820151816002015560608201518160030160006101000a81548173ffffffffffffffffffffffffffffffffffffffff021916908373ffffffffffffffffffffffffffffffffffffffff16021790555060808201518160030160146101000a81548160ff021916908360ff16021790555060a08201518160030160156101000a81548160ff021916908360ff1602179055505050505050565b3373ffffffffffffffffffffffffffffffffffffffff166001600084815260200190815260200160002060009054906101000a900473ffffffffffffffffffffffffffffffffffffffff1673ffffffffffffffffffffffffffffffffffffffff16146103b9576040517f08c379a00000000000000000000000000000000000000000000000000000000081526004016103b090610e6a565b60405180910390fd5b60018160ff16101580156103d1575060058160ff1611155b610410576040517f08c379a000000000000000000000000000000000000000000000000000000000815260040161040790610e4a565b60405180910390fd5b600080838154811061044b577f4e487b7100000000000000000000000000000000000000000000000000000000600052603260045260246000fd5b90600052602060002090600402019050818160030160148282829054906101000a900460ff1661047b9190610f22565b92506101000a81548160ff021916908360ff16021790555060018160030160158282829054906101000a900460ff166104b49190610f22565b92506101000a81548160ff021916908360ff160217905550505050565b60008080549050905090565b60608060008060008060008781548110610520577f4e487b7100000000000000000000000000000000000000000000000000000000600052603260045260246000fd5b906000526020600020906004020190506000808260030160159054906101000a900460ff1660ff1611610554576000610583565b8160030160159054906101000a900460ff168260030160149054906101000a900460ff166105829190610f59565b5b9050816000018260010183600201548460030160009054906101000a900473ffffffffffffffffffffffffffffffffffffffff16848480546105c490611015565b80601f01602080910402602001604051908101604052809291908181526020018280546105f090611015565b801561063d5780601f106106125761010080835404028352916020019161063d565b820191906000526020600020905b81548152906001019060200180831161062057829003601f168201915b5050505050945083805461065090611015565b80601f016020809104026020016040519081016040528092919081815260200182805461067c90611015565b80156106c95780601f1061069e576101008083540402835291602001916106c9565b820191906000526020600020905b8154815290600101906020018083116106ac57829003601f168201915b5050505050935096509650965096509650505091939590929450565b600081815481106106f557600080fd5b906000526020600020906004020160009150905080600001805461071890611015565b80601f016020809104026020016040519081016040528092919081815260200182805461074490611015565b80156107915780601f1061076657610100808354040283529160200191610791565b820191906000526020600020905b81548152906001019060200180831161077457829003601f168201915b5050505050908060010180546107a690611015565b80601f01602080910402602001604051908101604052809291908181526020018280546107d290611015565b801561081f5780601f106107f45761010080835404028352916020019161081f565b820191906000526020600020905b81548152906001019060200180831161080257829003601f168201915b5050505050908060020154908060030160009054906101000a900473ffffffffffffffffffffffffffffffffffffffff16908060030160149054906101000a900460ff16908060030160159054906101000a900460ff16905086565b60008082815481106108b6577f4e487b7100000000000000000000000000000000000000000000000000000000600052603260045260246000fd5b906000526020600020906004020190508060020154341461090c576040517f08c379a000000000000000000000000000000000000000000000000000000000815260040161090390610e2a565b60405180910390fd5b336001600084815260200190815260200160002060006101000a81548173ffffffffffffffffffffffffffffffffffffffff021916908373ffffffffffffffffffffffffffffffffffffffff1602179055508060030160009054906101000a900473ffffffffffffffffffffffffffffffffffffffff1673ffffffffffffffffffffffffffffffffffffffff166108fc349081150290604051600060405180830381858888f193505050501580156109c8573d6000803e3d6000fd5b505050565b60016020528060005260406000206000915054906101000a900473ffffffffffffffffffffffffffffffffffffffff1681565b828054610a0c90611015565b90600052602060002090601f016020900481019282610a2e5760008555610a75565b82601f10610a4757805160ff1916838001178555610a75565b82800160010185558215610a75579182015b82811115610a74578251825591602001919060010190610a59565b5b509050610a829190610a86565b5090565b5b80821115610a9f576000816000905550600101610a87565b5090565b6000610ab6610ab184610ed6565b610ea5565b905082815260208101848484011115610ace57600080fd5b610ad9848285610fd3565b509392505050565b600082601f830112610af257600080fd5b8135610b02848260208601610aa3565b91505092915050565b600081359050610b1a81611114565b92915050565b600081359050610b2f8161112b565b92915050565b600080600060608486031215610b4a57600080fd5b600084013567ffffffffffffffff811115610b6457600080fd5b610b7086828701610ae1565b935050602084013567ffffffffffffffff811115610b8d57600080fd5b610b9986828701610ae1565b9250506040610baa86828701610b0b565b9150509250925092565b600060208284031215610bc657600080fd5b6000610bd484828501610b0b565b91505092915050565b60008060408385031215610bf057600080fd5b6000610bfe85828601610b0b565b9250506020610c0f85828601610b20565b9150509250929050565b610c2281610f8a565b82525050565b6000610c3382610f06565b610c3d8185610f11565b9350610c4d818560208601610fe2565b610c5681611103565b840191505092915050565b6000610c6e601183610f11565b91507f496e636f7272656374207061796d656e740000000000000000000000000000006000830152602082019050919050565b6000610cae601e83610f11565b91507f526174696e67206d757374206265206265747765656e203120616e64203500006000830152602082019050919050565b6000610cee600d83610f11565b91507f4e6f7420707572636861736564000000000000000000000000000000000000006000830152602082019050919050565b610d2a81610fbc565b82525050565b610d3981610fc6565b82525050565b6000602082019050610d546000830184610c19565b92915050565b600060a0820190508181036000830152610d748188610c28565b90508181036020830152610d888187610c28565b9050610d976040830186610d21565b610da46060830185610c19565b610db16080830184610d30565b9695505050505050565b600060c0820190508181036000830152610dd58189610c28565b90508181036020830152610de98188610c28565b9050610df86040830187610d21565b610e056060830186610c19565b610e126080830185610d30565b610e1f60a0830184610d30565b979650505050505050565b60006020820190508181036000830152610e4381610c61565b9050919050565b60006020820190508181036000830152610e6381610ca1565b9050919050565b60006020820190508181036000830152610e8381610ce1565b9050919050565b6000602082019050610e9f6000830184610d21565b92915050565b6000604051905081810181811067ffffffffffffffff82111715610ecc57610ecb6110d4565b5b8060405250919050565b600067ffffffffffffffff821115610ef157610ef06110d4565b5b601f19601f8301169050602081019050919050565b600081519050919050565b600082825260208201905092915050565b6000610f2d82610fc6565b9150610f3883610fc6565b92508260ff03821115610f4e57610f4d611047565b5b828201905092915050565b6000610f6482610fc6565b9150610f6f83610fc6565b925082610f7f57610f7e611076565b5b828204905092915050565b6000610f9582610f9c565b9050919050565b600073ffffffffffffffffffffffffffffffffffffffff82169050919050565b6000819050919050565b600060ff82169050919050565b82818337600083830152505050565b60005b83811015611000578082015181840152602081019050610fe5565b8381111561100f576000848401525b50505050565b6000600282049050600182168061102d57607f821691505b60208210811415611041576110406110a5565b5b50919050565b7f4e487b7100000000000000000000000000000000000000000000000000000000600052601160045260246000fd5b7f4e487b7100000000000000000000000000000000000000000000000000000000600052601260045260246000fd5b7f4e487b7100000000000000000000000000000000000000000000000000000000600052602260045260246000fd5b7f4e487b7100000000000000000000000000000000000000000000000000000000600052604160045260246000fd5b6000601f19601f8301169050919050565b61111d81610fbc565b811461112857600080fd5b50565b61113481610fc6565b811461113f57600080fd5b5056fea264697066735822122087207810a40d38264f1a6f424fc043d43dcb70601fd3562046ca205a98b41e0e64736f6c63430008000033",
  "immutableReferences": {},
  "source": "//  -      \r\npragma solidity ^0.8.0;\r\n\r\ncontract AIModelMarketplace {\r\n    struct Model {\r\n        string name;\r\n        string description;\r\n        uint256 price;\r\n        address creator;\r\n        uint8 ratingSum;\r\n        uint8 ratingCount;\r\n    }\r\n\r\n    Model[] public models;\r\n    mapping(uint256 => address) public modelPurchasers;\r\n\r\n    //    \r\n    function listModel(string memory name, string memory description, uint256 price) public {\r\n        models.push(Model(name, description, price, msg.sender, 0, 0));\r\n    }\r\n\r\n    //    \r\n    function purchaseModel(uint256 modelId) public payable {\r\n        Model storage model = models[modelId];\r\n        require(msg.value == model.price, \"Incorrect payment\");\r\n        modelPurchasers[modelId] = msg.sender;\r\n        payable(model.creator).transfer(msg.value);\r\n    }\r\n\r\n    //    \r\n    function rateModel(uint256 modelId, uint8 rating) public {\r\n        require(modelPurchasers[modelId] == msg.sender, \"Not purchased\");\r\n        require(rating >= 1 && rating <= 5, \"Rating must be between 1 and 5\");\r\n\r\n        Model storage model = models[modelId];\r\n        model.ratingSum += rating;\r\n        model.ratingCount += 1;\r\n    }\r\n\r\n    //       ,   \r\n    function getModelDetails(uint256 modelId) public view returns (string memory, string memory, uint256, address, uint8) {\r\n        Model storage model = models[modelId];\r\n        uint8 averageRating = model.ratingCount > 0 ? model.ratingSum / model.ratingCount : 0;\r\n        return (model.name, model.description, model.price, model.creator, averageRating);\r\n    }\r\n    \r\n    //     \r\n    function getModelsCount() public view returns (uint256) {\r\n        return models.length;\r\n    }\r\n}\r\n",
  "sourcePath": "C:\\Users\\Danil\\Desktop\\ai_marketplace\\contracts\\AIModelMarketplace.sol",
  "compiler": {
    "name": "solc",
    "version": "0.8.0+commit.c7dfd78e.Emscripten.clang"
  },
  "schemaVersion": "3.4.16",
  "updatedAt": "2025-01-09T16:08:33.758Z",
  "networkType": "ethereum",
  "devdoc": {
    "kind": "dev",
    "methods": {},
    "version": 1
  },
  "userdoc": {
    "kind": "user",
    "methods": {},
    "version": 1
  }
}